:100000000C942A000C9447000C9447000C94470071
:100010000C9447000C9447000C9447000C94470044
:100020000C9447000C9447000C9447000C94470034
:100030000C9447000C9447000C9447000C94470024
:100040000C9447000C9447000C9447000C94470014
:100050000C94470011241FBECFE5D8E0DEBFCDBF12
:1000600011E0A0E6B0E0EEEDF2E202C005900D92E4
:10007000A838B107D9F721E0A8E8B1E001C01D9286
:10008000AD3AB207E1F70E9450060C946D110C9442
:1000900000000F931F93CF93DF93CDB7DEB7679721
:1000A0000FB6F894DEBF0FBECDBF182F8AE0E3EA8B
:1000B000F0E0DE01119601900D928A95E1F78DE056
:1000C000EDEAF0E0DE011B9601900D928A95E1F7D2
:1000D00000E030C0402F60E0812F0E947C05BE010F
:1000E0006F5F7F4F812F0E94C1052FEF80E792E065
:1000F000215080409040E1F700C00000402F60E0B8
:10010000812F0E94F4054DE851E06EE871E0812FE7
:100110000E94220680918D01853059F4402F60E0C5
:10012000812F0E947C0567E5812F0E94A90500E0D0
:1001300033C00F5F003170F2FACF402F61E0812FA2
:100140000E947C05BE01655F7F4F812F0E94C10523
:100150002FEF80E792E0215080409040E1F700C00F
:100160000000402F61E0812F0E94F4054DE851E02E
:100170006EE871E0812F0E94220680918D0185300A
:1001800051F4402F61E0812F0E947C056DE4812FA6
:100190000E94A90503C00F5F003178F22FEF89E6B6
:1001A00098E1215080409040E1F700C0000004E059
:1001B00025C0402F60E0812F0E947C05BE016F5F4B
:1001C0007F4F812F0E94C1052FEF80E792E02150E1
:1001D00080409040E1F700C00000402F60E0812F98
:1001E0000E94F4054DE851E06EE871E0812F0E9415
:1001F000220680918D01803118F40F5F0031C8F222
:1002000004E025C0402F61E0812F0E947C05BE01E3
:10021000655F7F4F812F0E94C1052FEF80E792E03D
:10022000215080409040E1F700C00000402F61E085
:10023000812F0E94F4054DE851E06EE871E0812FB6
:100240000E94220680918D01803118F40F5F0031E9
:10025000C8F22FEF84E39CE0215080409040E1F70A
:1002600000C00000812F0E94DC0567960FB6F8944D
:10027000DEBF0FBECDBFDF91CF911F910F910895CB
:1002800040E069E970E080E00E94FE0541E061E93C
:1002900070E080E00E94FE0542E069E870E080E0E6
:1002A0000E94FE0543E061E870E080E00E94FE05E8
:1002B00044E069E770E080E00E94FE0545E061E708
:1002C00070E080E00E94FE0546E069E670E080E0B4
:1002D0000E94FE0547E061E670E080E00E94FE05B6
:1002E00080E00E9449000895EF92FF920F931F93C0
:1002F000CF93DF93CDB7DEB7A2970FB6F894DEBFEA
:100300000FBECDBFE82EF62E81E1EAEBF0E0DE0174
:10031000119601900D928A95E1F781E1EBECF0E006
:10032000DE01529601900D928A95E1F740E060E07F
:1003300081E00E947C05BE016F5F7F4F81E00E94DB
:10034000C10545E061E081E00E947C056CE781E049
:100350000E94A90546E061E081E00E94F40547E0C3
:1003600061E081E00E94F40548E061E081E00E94E4
:100370007C051DECE19E012D112406950695069540
:1003800060E3600F81E00E94A90549E061E081E03F
:100390000E947C05000F802F880F880F080F6E2D9C
:1003A000601B605D81E00E94A9054AE061E081E098
:1003B0000E94F4054BE061E081E00E947C056CE75F
:1003C00081E00E94A9054CE061E081E00E94F40513
:1003D0004DE061E081E00E947C0560E381E00E94E5
:1003E000A9054EE061E081E00E947C0567E381E0C1
:1003F0000E94A9054FE061E081E00E94F40540E021
:1004000060E082E00E947C05BE016E5E7F4F82E06C
:100410000E94C10545E061E082E00E947C056CE736
:1004200082E00E94A90546E061E082E00E94F405B6
:1004300047E061E082E00E94F40548E061E082E08C
:100440000E947C05F19E112D112416951695169586
:1004500060E3610F82E00E94A90549E061E082E06B
:100460000E947C05110F812F880F880F180F6F2DA8
:10047000611B605D82E00E94A9054AE061E082E0C4
:100480000E94F4054BE061E082E00E947C056CE78D
:1004900082E00E94A9054CE061E082E00E94F40540
:1004A0004DE061E082E00E947C0560E382E00E9412
:1004B000A9054EE061E082E00E947C0567E382E0EE
:1004C0000E94A9054FE061E082E00E94F405A29637
:1004D0000FB6F894DEBF0FBECDBFDF91CF911F9155
:1004E0000F91FF90EF9008950F931F93CF93DF9399
:1004F000CDB7DEB7AD970FB6F894DEBF0FBECDBF58
:10050000182F062F8DE0ECEDF0E0DE011196019042
:100510000D928A95E1F780E1E9EEF0E0DE011E96AA
:1005200001900D928A95E1F780E1E9EFF0E0DE01BC
:100530005E9601900D928A95E1F741E060E0812F8F
:100540000E947C05BE016F5F7F4F812F0E94C10515
:100550002FEF80E792E0215080409040E1F700C00B
:100560000000002319F0013069F017C041E061E09C
:10057000812F0E947C05BE01625F7F4F812F0E9408
:10058000C1050BC041E061E0812F0E947C05BE01E6
:10059000625E7F4F812F0E94C1052FEF8FE097E2AF
:1005A000215080409040E1F700C000008091600041
:1005B000882331F060E080E00E94740110926000B6
:1005C00060E0812F0E9437062FE78AE196E02150F4
:1005D00080409040E1F700C0000061E0812F0E9460
:1005E00037062FE78AE196E0215080409040E1F7FE
:1005F00000C00000AD960FB6F894DEBF0FBECDBFB1
:10060000DF91CF911F910F91089540E061E080E06C
:100610000E947C0560E080E00E94A9054EE061E058
:1006200080E00E947C0560E080E00E94A9050895BA
:1006300041E061E080E00E947C0560E080E00E9493
:10064000A9054FE061E080E00E947C0560E080E069
:100650000E94A9050895CF93DF931F92CDB7DEB70F
:10066000BE016F5F7F4F0E94DB10811104C0898142
:10067000813019F403C082E001C080E00F90DF9167
:10068000CF9108951F93CF93DF93162F90E0FC0135
:10069000EE0FFF1F9C01220F331F220F331F220F6B
:1006A000331FE20FF31FE157FE4F22812130F1F497
:1006B000EF0160E080810E94EE0F612F8B810E942C
:1006C000571161E089810E94EE0F8FEC97E001974E
:1006D000F1F700C0000060E089810E94EE0F8FEC0E
:1006E00097E00197F1F700C000006BC0211169C0CD
:1006F000EC01CC0FDD1F880F991F880F991F880F01
:10070000991FC80FD91FC157DE4F60E088810E9432
:10071000EE0F612F661F6627661F8F810E94EE0F06
:1007200016FB662760F98E810E94EE0F15FB662787
:1007300060F98D810E94EE0F14FB662760F98C81B1
:100740000E94EE0F61E089810E94EE0F8FEC97E02E
:100750000197F1F700C0000060E089810E94EE0F70
:100760008FEC97E00197F1F700C0000013FB6627BC
:1007700060F98F810E94EE0F12FB662760F98E816F
:100780000E94EE0F11FB662760F98D810E94EE0F2B
:10079000612F61708C810E94EE0F61E089810E945F
:1007A000EE0F8FEC97E00197F1F700C0000060E0DA
:1007B00089810E94EE0F8FEC97E00197F1F700C05E
:1007C0000000DF91CF911F9108951F93CF93DF9386
:1007D000162F90E0FC01EE0FFF1F9C01220F331F2C
:1007E000220F331F220F331FE20FF31FE157FE4F7B
:1007F00022812130F1F4EF0161E080810E94EE0F4F
:10080000612F8B810E94571161E089810E94EE0F58
:100810008FEC97E00197F1F700C0000060E089815C
:100820000E94EE0F8FEC97E00197F1F700C00000F7
:100830006BC0211169C0EC01CC0FDD1F880F991F1F
:10084000880F991F880F991FC80FD91FC157DE4FF6
:1008500061E088810E94EE0F612F661F6627661F88
:100860008F810E94EE0F16FB662760F98E810E9431
:10087000EE0F15FB662760F98D810E94EE0F14FBC9
:10088000662760F98C810E94EE0F61E089810E94E9
:10089000EE0F8FEC97E00197F1F700C0000060E0E9
:1008A00089810E94EE0F8FEC97E00197F1F700C06D
:1008B000000013FB662760F98F810E94EE0F12FB88
:1008C000662760F98E810E94EE0F11FB662760F9A2
:1008D0008D810E94EE0F612F61708C810E94EE0F5E
:1008E00061E089810E94EE0F8FEC97E00197F1F7AC
:1008F00000C0000060E089810E94EE0F8FEC97E05D
:100900000197F1F700C00000DF91CF911F9108958A
:1009100040E064C0842F90E0FC01EE0FFF1F9C01BB
:10092000220F331F220F331F220F331FE20FF31F3B
:10093000E157FE4F10861186FC01E35BFE4F2081DC
:100940002130E9F4DC01AA0FBB1FFC01EE0FFF1FF1
:10095000EE0FFF1FEE0FFF1FEA0FFB1FE157FE4FC9
:100960002283A80FB91FAC5BBE4F8C918083119678
:100970008C911197818312968C9183832EC02111C3
:100980002CC0FC01EE0FFF1FDC01AA0FBB1FAA0F3A
:10099000BB1FAA0FBB1FAE0FBF1FA157BE4F1296A2
:1009A0001C921297E80FF91FEE0FFF1FEE5CFE4F2F
:1009B00080818C93818111968C93119782811496FA
:1009C0008C931497838115968C9315978481169632
:1009D0008C931697858117968C934F5F8091A20018
:1009E000481708F497CF08950F931F93CF930E9451
:1009F00088042FE788E391E0215080409040E1F7A0
:100A000000C00000C0E06FC00C2F10E0F801EE0F36
:100A1000FF1FC801880F991F880F991F880F991F02
:100A2000E80FF91FE157FE4F8281813059F5F80137
:100A3000E75DFE4F8081882319F0813031F009C0D5
:100A400068E38C2F0E94420304C06CE38C2F0E9449
:100A50004203F801E15DFE4F60818C2F0E9442034A
:100A600061E08C2F0E9442038FEC97E00197F1F731
:100A700000C00000F801E45DFE4F60818C2F0E94F1
:100A8000420330C081112EC062E08C2F0E944203CD
:100A9000F801E75DFE4F8081882319F0813031F045
:100AA00009C068E28C2F0E94420304C06CE28C2FC4
:100AB0000E944203F801E15DFE4F60818C2F0E948D
:100AC000420361E08C2F0E9442038FEC97E0019774
:100AD000F1F700C00000F801E45DFE4F60818C2F4B
:100AE0000E944203CF5F8091A200C81708F48CCF08
:100AF000CF911F910F910895282F30E0F901EE0F4B
:100B0000FF1F220F331F220F331F220F331FE20F4D
:100B1000F31FE157FE4F60874187613059F028F09D
:100B2000623069F0633081F00895642F60680E943C
:100B300042030895642F606C0E9442030895642F5D
:100B400060680E9442030895642F606C0E94420313
:100B50000895CF93C82F0E94E5038C2F90E0FC01ED
:100B6000EE0FFF1F880F991F880F991F880F991F7D
:100B7000E80FF91FE157FE4F81858F5F8187CF9185
:100B800008950F931F93CF93DF936115710531F48F
:100B90000EC08D2F0E94A905CF5F03C08B01D82FF7
:100BA000C0E0F801EC0FF11D60816111F2CFDF911F
:100BB000CF911F910F910895CF93C82F61E00E94AC
:100BC00042038C2F90E0FC01EE0FFF1F880F991F4E
:100BD000880F991F880F991FE80FF91FE157FE4FE3
:100BE00010861186CF910895CF93C82F0E947C055F
:100BF00060E28C2F0E94A905CF9108950F931F9357
:100C0000CF93DF93D82F8B01642F70E0685F7F4F05
:100C1000660F660F660F0E944203C0E008C0F8012D
:100C2000EC0FF11D60818D2F0E94E503CF5FC8306E
:100C3000B0F360E88D2F0E944203DF91CF911F91A6
:100C40000F91089590E0FC01EE0FFF1F880F991F90
:100C5000880F991F880F991FE80FF91FE157FE4F62
:100C60008085DB018C938185FA01808308951F9331
:100C7000CF93DF93D82F162FC0E00AC04C2F612FDF
:100C80008D2F0E947C0560E28D2F0E94A905CF5F09
:100C90008091A100C81790F3DF91CF911F91089523
:100CA000CF93DF93CDB7DEB768970FB6F894DEBF6A
:100CB0000FBECDBF8EE0E0E7F1E0DE0111960190BE
:100CC0000D928A95E1F78AE0EEE7F1E0DE011F96EA
:100CD00001900D928A95E1F70E94DE0F0E94F404C4
:100CE0000E9440010F2EFEE0FF2EF02D01E0E12CCE
:100CF00080918C0185FF0BC060918A0180918B01EE
:100D00000E94740180918C018F7D80938C01E11091
:100D100029C480918C0182FD0CC080E00E94DC051A
:100D200060E080E00E94740280918C018460809376
:100D30008C010E940503402F61E080E00E947C0549
:100D400062E080E00E94A9052FEF80E792E0215049
:100D500080409040E1F700C000008BE10E942B032F
:100D600081110AC080918C01816080938C018BE19C
:100D70000E942B038823D9F380918C0180FF0EC041
:100D8000402F61E080E00E94F4050F5F0F3030F0EB
:100D900080918C018E7F80938C0101E08CE10E9418
:100DA0002B03882309F435C11CC28AE10E942B035E
:100DB00081110CC080918C01877F80938C018AE126
:100DC0000E942B038823D9F3EE24E394402F61E0A3
:100DD00080E00E947C0562E080E00E94A9052FEF80
:100DE00080E792E0215080409040E1F700C0000091
:100DF00080918C0180FF0EC0402F61E080E00E9456
:100E0000F4050F5F0F3030F080918C018E7F80935E
:100E10008C0101E04DE851E06EE871E080E00E9455
:100E2000220680918E01813009F08BC090918D0156
:100E30009E3008F486C090918801911182C09091F3
:100E40008C0190FF7EC080918B018F5F80938B011E
:100E50004EE061E080E00E94F4054FE061E080E058
:100E60000E947C0566E080E00E94A9054EE061E0FA
:100E700080E00E947C0562E080E00E94A90510E00D
:100E800033C040E061E080E00E947C0567E080E0E4
:100E90000E94A9052FE789EA93E021508040904005
:100EA000E1F700C0000040E061E080E00E947C05C6
:100EB00060E080E00E94A9052FE789EA93E02150D5
:100EC00080409040E1F700C00000113029F44EE06E
:100ED00061E080E00E94F405123029F44FE061E007
:100EE00080E00E94F4051F5F143058F248E061E092
:100EF00081E00E947C0560918B011DEC619F612D5A
:100F00001124669566956695605D81E00E94A9054D
:100F100049E061E081E00E947C0590918B01919F06
:100F2000812D1124869586958695880F282F220F6E
:100F3000220F820F981B60E3690F81E00E94A905D0
:100F40003DC08130D9F580918D018E30B8F180910E
:100F50008801813099F580918C0180FF2FC08091AC
:100F60008A018F5F80938A0148E061E082E00E94FD
:100F70007C0560918A011DEC619F612D11246695AD
:100F800066956695605D82E00E94A90549E061E092
:100F900082E00E947C0590918A01919F812D11240D
:100FA000869586958695880F282F220F220F820F0F
:100FB000981B60E3690F82E00E94A9058091890176
:100FC0008230B8F44EE061E080E00E94F4054EE02B
:100FD00060E080E00E947C0561E080E00E94A9055D
:100FE00081E080938801809189018F5F80938901DE
:100FF00010C04EE060E080E00E94F4054EE061E049
:1010000080E00E947C0560E080E00E94A9051092CB
:1010100088018CE10E942B03882309F4C6CE8091BD
:101020008B01873008F469C080E00E94DC0581E014
:101030000E94DC0582E00E94DC05BE016F5F7F4FED
:1010400081E00E94C105BE01615F7F4F82E00E9486
:10105000C10561E671E080E00E94C10510E037C083
:1010600047E061E080E00E947C0560E080E00E9453
:10107000A9052FE789EA93E0215080409040E1F7ED
:1010800000C0000047E061E080E00E947C0564E071
:1010900080E00E94A9052FE789EA93E02150804073
:1010A0009040E1F700C0000047E061E080E00E946E
:1010B0007C0567E080E00E94A9052FE789EA93E0BC
:1010C000215080409040E1F700C000001F5F1830C1
:1010D00038F280E00E94DC0581E00E94DC0582E0BD
:1010E0000E94DC0510928B0110928A0180918C0184
:1010F0008B7F806280938C016DC080918A018730E4
:1011000008F468C080E00E94DC0581E00E94DC05F4
:1011100082E00E94DC05BE016F5F7F4F82E00E948B
:10112000C105BE01615F7F4F81E00E94C10560E59E
:1011300071E080E00E94C10510E037C047E061E047
:1011400080E00E947C0560E080E00E94A9052FE716
:1011500089EA93E0215080409040E1F700C0000010
:1011600047E061E080E00E947C0564E080E00E944E
:10117000A9052FE789EA93E0215080409040E1F7EC
:1011800000C0000047E061E080E00E947C0567E06D
:1011900080E00E94A9052FE789EA93E02150804072
:1011A0009040E1F700C000001F5F183038F280E087
:1011B0000E94DC0581E00E94DC0582E00E94DC05E3
:1011C00010928B0110928A0180918C018B7F80623A
:1011D00080938C014EE060E080E00E94F405109264
:1011E00089014DE851E06EE871E080E00E9422063E
:1011F00080918E01813009F08BC090918D019E30DD
:1012000008F486C090918801911182C090918C0160
:1012100090FF7EC080918B018F5F80938B014EE0A9
:1012200061E080E00E94F4054FE061E080E00E9410
:101230007C0566E080E00E94A9054EE061E080E068
:101240000E947C0562E080E00E94A90510E033C0A6
:1012500040E061E080E00E947C0567E080E00E9461
:10126000A9052FE789EA93E0215080409040E1F7FB
:1012700000C0000040E061E080E00E947C0560E08A
:1012800080E00E94A9052FE789EA93E02150804081
:101290009040E1F700C00000113029F44EE061E019
:1012A00080E00E94F405123029F44FE061E080E014
:1012B0000E94F4051F5F143058F248E061E081E0BD
:1012C0000E947C0560918B011DEC619F612D1124B2
:1012D000669566956695605D81E00E94A90549E086
:1012E00061E081E00E947C0590918B01919F812DAE
:1012F0001124869586958695880F282F220F220F18
:10130000820F981B60E3690F81E00E94A9053DC030
:101310008130D9F580918D018E30B8F180918801AE
:10132000813099F580918C0180FF2FC080918A01D6
:101330008F5F80938A0148E061E082E00E947C0533
:1013400060918A011DEC619F612D1124669566955F
:101350006695605D82E00E94A90549E061E082E057
:101360000E947C0590918A01919F812D1124869580
:1013700086958695880F282F220F220F820F981BA3
:1013800060E3690F82E00E94A90580918B0187309C
:1013900008F469C080E00E94DC0581E00E94DC0561
:1013A00082E00E94DC05BE016F5F7F4F81E00E94FA
:1013B000C105BE01615F7F4F82E00E94C10560E60A
:1013C00071E080E00E94C10510E037C047E061E0B5
:1013D00080E00E947C0560E080E00E94A9052FE784
:1013E00089EA93E0215080409040E1F700C000007E
:1013F00047E061E080E00E947C0564E080E00E94BC
:10140000A9052FE789EA93E0215080409040E1F759
:1014100000C0000047E061E080E00E947C0567E0DA
:1014200080E00E94A9052FE789EA93E021508040DF
:101430009040E1F700C000001F5F183038F280E0F4
:101440000E94DC0581E00E94DC0582E00E94DC0550
:1014500010928B0110928A0180918C018B7F8062A7
:1014600080938C016DC080918A01873008F468C038
:1014700080E00E94DC0581E00E94DC0582E00E94A1
:10148000DC05BE016F5F7F4F82E00E94C105BE0197
:10149000615F7F4F81E00E94C10560E571E080E0FF
:1014A0000E94C10510E037C047E061E080E00E9483
:1014B0007C0560E080E00E94A9052FE789EA93E0BF
:1014C000215080409040E1F700C0000047E061E01B
:1014D00080E00E947C0564E080E00E94A9052FE77F
:1014E00089EA93E0215080409040E1F700C000007D
:1014F00047E061E080E00E947C0567E080E00E94B8
:10150000A9052FE789EA93E0215080409040E1F758
:1015100000C000001F5F183038F280E00E94DC0538
:1015200081E00E94DC0582E00E94DC0510928B01C4
:1015300010928A0180918C018B7F806280938C0154
:101540008AE10E942B038111D3CB80918C01877F8C
:1015500080938C018AE10E942B038823D9F3EE2427
:10156000E394C6CB80918C0183FD0CC080E00E9487
:10157000DC0561E080E00E94740280918C0188604B
:1015800080938C010E9418034F2D61E080E00E943F
:101590007C0563E080E00E94A9052FEF80E792E0E0
:1015A000215080409040E1F700C000008CE10E9493
:1015B0002B0381110AC080918C01826080938C0181
:1015C0008CE10E942B038823D9F380918C0181FF49
:1015D00011C04F2D61E080E00E94F405FA94F110F3
:1015E00009C080918C018D7F80938C010F2EFEE0CD
:1015F000FF2EF02D8BE10E942B03882309F412C2E9
:101600001EC28AE10E942B0381110BC080918C01C4
:101610008B7F80938C018AE10E942B038823D9F36E
:10162000E12C4F2D61E080E00E947C0563E080E0CA
:101630000E94A9052FEF80E792E021508040904062
:10164000E1F700C0000080918C0181FF11C04F2D97
:1016500061E080E00E94F405FA94F11009C08091E5
:101660008C018D7F80938C010F2EFEE0FF2EF02DDC
:101670004DE851E06EE871E080E00E942206809122
:101680008E018130E1F590918D019430C0F59091FB
:1016900088019130A1F590918C0191FF30C080912B
:1016A0008B018F5F80938B0148E061E081E00E94B5
:1016B0007C0560918B011DEC619F612D1124669565
:1016C00066956695605D81E00E94A90549E061E04C
:1016D00081E00E947C0590918B01919F812D1124C6
:1016E000869586958695880F282F220F220F820FC8
:1016F000981B60E3690F81E00E94A9058DC08130CD
:1017000009F08AC080918D01843008F085C08091F5
:101710008801811181C080918C0181FF7DC0809101
:101720008A018F5F80938A0141E061E080E00E943E
:10173000F40540E061E080E00E947C0565E080E027
:101740000E94A90541E061E080E00E947C0563E021
:1017500080E00E94A90510E033C04FE061E080E026
:101760000E947C0567E080E00E94A9052FE789EAD6
:1017700093E0215080409040E1F700C000004FE02E
:1017800061E080E00E947C0560E080E00E94A905A5
:101790002FE789EA93E0215080409040E1F700C0B4
:1017A0000000113029F441E061E080E00E94F4057E
:1017B000123029F440E061E080E00E94F4051F5FF0
:1017C000143058F248E061E082E00E947C056091AC
:1017D0008A011DEC619F612D1124669566956695C1
:1017E000605D82E00E94A90549E061E082E00E941C
:1017F0007C0590918A01919F812D11248695869573
:101800008695880F282F220F220F820F981B60E3E6
:10181000690F82E00E94A905809189018230B8F4A5
:1018200041E061E080E00E94F40541E060E080E09A
:101830000E947C0561E080E00E94A90581E0809320
:101840008801809189018F5F8093890110C041E0F8
:1018500060E080E00E94F40541E061E080E00E94E9
:101860007C0560E080E00E94A905109288018091CB
:101870008B01873008F469C080E00E94DC0581E0BC
:101880000E94DC0582E00E94DC05BE016F5F7F4F95
:1018900081E00E94C105BE01615F7F4F82E00E942E
:1018A000C10560E671E080E00E94C10510E037C02C
:1018B00047E061E080E00E947C0560E080E00E94FB
:1018C000A9052FE789EA93E0215080409040E1F795
:1018D00000C0000047E061E080E00E947C0564E019
:1018E00080E00E94A9052FE789EA93E0215080401B
:1018F0009040E1F700C0000047E061E080E00E9416
:101900007C0567E080E00E94A9052FE789EA93E063
:10191000215080409040E1F700C000001F5F183068
:1019200038F280E00E94DC0581E00E94DC0582E064
:101930000E94DC0510928B0110928A0180918C012B
:10194000877F806280938C016DC080918A0187308F
:1019500008F468C080E00E94DC0581E00E94DC059C
:1019600082E00E94DC05BE016F5F7F4F82E00E9433
:10197000C105BE01615F7F4F81E00E94C10560E546
:1019800071E080E00E94C10510E037C047E061E0EF
:1019900080E00E947C0560E080E00E94A9052FE7BE
:1019A00089EA93E0215080409040E1F700C00000B8
:1019B00047E061E080E00E947C0564E080E00E94F6
:1019C000A9052FE789EA93E0215080409040E1F794
:1019D00000C0000047E061E080E00E947C0567E015
:1019E00080E00E94A9052FE789EA93E0215080401A
:1019F0009040E1F700C000001F5F183038F280E02F
:101A00000E94DC0581E00E94DC0582E00E94DC058A
:101A100010928B0110928A0180918C01877F8062E5
:101A200080938C018BE10E942B03882309F4E9CD7C
:101A300041E060E080E00E94F405109289014DE8E9
:101A400051E06EE871E080E00E94220680918E01F4
:101A50008130E1F590918D019430C0F5909188012D
:101A60009130A1F590918C0191FF30C080918B0154
:101A70008F5F80938B0148E061E081E00E947C05EC
:101A800060918B011DEC619F612D11246695669517
:101A90006695605D81E00E94A90549E061E081E012
:101AA0000E947C0590918B01919F812D1124869538
:101AB00086958695880F282F220F220F820F981B5C
:101AC00060E3690F81E00E94A9058DC0813009F0B3
:101AD0008AC080918D01843008F085C08091880192
:101AE000811181C080918C0181FF7DC080918A012C
:101AF0008F5F80938A0141E061E080E00E94F405FD
:101B000040E061E080E00E947C0565E080E00E94AA
:101B1000A90541E061E080E00E947C0563E080E08F
:101B20000E94A90510E033C04FE061E080E00E9410
:101B30007C0567E080E00E94A9052FE789EA93E031
:101B4000215080409040E1F700C000004FE061E08C
:101B500080E00E947C0560E080E00E94A9052FE7FC
:101B600089EA93E0215080409040E1F700C00000F6
:101B7000113029F441E061E080E00E94F405123068
:101B800029F440E061E080E00E94F4051F5F14301A
:101B900058F248E061E082E00E947C0560918A0191
:101BA0001DEC619F612D1124669566956695605DBB
:101BB00082E00E94A90549E061E082E00E947C0584
:101BC00090918A01919F812D112486958695869505
:101BD000880F282F220F220F820F981B60E3690FB6
:101BE00082E00E94A9058AE10E942B0381110BC0AB
:101BF00080918C018B7F80938C018AE10E942B0362
:101C00008823D9F3E12C80918B01873008F469C0D7
:101C100080E00E94DC0581E00E94DC0582E00E94F9
:101C2000DC05BE016F5F7F4F81E00E94C105BE01F0
:101C3000615F7F4F82E00E94C10560E671E080E055
:101C40000E94C10510E037C047E061E080E00E94DB
:101C50007C0560E080E00E94A9052FE789EA93E017
:101C6000215080409040E1F700C0000047E061E073
:101C700080E00E947C0564E080E00E94A9052FE7D7
:101C800089EA93E0215080409040E1F700C00000D5
:101C900047E061E080E00E947C0567E080E00E9410
:101CA000A9052FE789EA93E0215080409040E1F7B1
:101CB00000C000001F5F183038F280E00E94DC0591
:101CC00081E00E94DC0582E00E94DC0510928B011D
:101CD00010928A0180918C01877F806280938C01B1
:101CE00007C880918A01873010F40C94780680E050
:101CF0000E94DC0581E00E94DC0582E00E94DC0598
:101D0000BE016F5F7F4F82E00E94C105BE01615F2F
:101D10007F4F81E00E94C10560E571E080E00E9494
:101D2000C10510E037C047E061E080E00E947C051B
:101D300060E080E00E94A9052FE789EA93E0215046
:101D400080409040E1F700C0000047E061E080E0A3
:101D50000E947C0564E080E00E94A9052FE789EAE3
:101D600093E0215080409040E1F700C0000047E040
:101D700061E080E00E947C0567E080E00E94A905A8
:101D80002FE789EA93E0215080409040E1F700C0BE
:101D900000001F5F183038F280E00E94DC0581E00F
:101DA0000E94DC0582E00E94DC0510928B011092FB
:101DB0008A0180918C01877F806280938C010C94D2
:101DC0007806982F9695969596958770613009F4C8
:101DD00055C020F0623009F4A1C008959130C1F0DF
:101DE00028F0923039F19330B9F108954AB321E0E7
:101DF00030E0B90102C0660F771F8A95E2F7CB0188
:101E0000942F982B9ABB9BB3809589238BBB089505
:101E100047B321E030E0B90102C0660F771F8A9511
:101E2000E2F7CB01942F982B97BB98B38095892329
:101E300088BB089544B321E030E0B90102C0660FC9
:101E4000771F8A95E2F7CB01942F982B94BB95B31B
:101E50008095892385BB089541B321E030E0B90125
:101E600002C0660F771F8A95E2F7CB01942F982B5B
:101E700091BB92B38095892382BB08959130C1F0C4
:101E800028F0923039F19330B9F108954AB321E046
:101E900030E0B90102C0660F771F8A95E2F7CB01E7
:101EA0008095942F98239ABB9BB389238BBB08956D
:101EB00047B321E030E0B90102C0660F771F8A9571
:101EC000E2F7CB018095942F982397BB98B3892391
:101ED00088BB089544B321E030E0B90102C0660F29
:101EE000771F8A95E2F7CB018095942F982394BBB6
:101EF00095B3892385BB089541B321E030E0B90152
:101F000002C0660F771F8A95E2F7CB018095942F68
:101F1000982391BB92B3892382BB08959130C1F07D
:101F200028F0923039F19330B9F108954AB321E0A5
:101F300030E0B90102C0660F771F8A95E2F7CB0146
:101F4000962F909594239ABB9BB3892B8BBB0895B6
:101F500047B321E030E0B90102C0660F771F8A95D0
:101F6000E2F7CB01962F9095942397BB98B3892BDA
:101F700088BB089544B321E030E0B90102C0660F88
:101F8000771F8A95E2F7CB01962F9095942394BB07
:101F900095B3892B85BB089541B321E030E0B901A9
:101FA00002C0660F771F8A95E2F7CB01962F9095B6
:101FB000942391BB92B3892B82BB0895CF93C0E049
:101FC00009C0EC2FF0E0E75FFE4F60818C2F0E948C
:101FD000E10ECF5FC032A8F3CF910895982F969568
:101FE00096959695282F2770803208F0CCC06623EE
:101FF00009F464C0613009F0C8C09130E9F030F0F4
:10200000923081F1933009F443C0C1C08AB390E0AB
:10201000022E02C0959587950A94E2F780FFB9C019
:102020003BB381E090E002C0880F991F2A95E2F748
:10203000832B8BBB80E0089587B390E0022E02C013
:10204000959587950A94E2F780FFA5C038B381E0A3
:1020500090E002C0880F991F2A95E2F7832B88BB76
:1020600080E0089584B390E0022E02C09595879594
:102070000A94E2F780FF91C035B381E090E002C09E
:10208000880F991F2A95E2F7832B85BB80E008957E
:1020900081B390E0022E02C0959587950A94E2F7ED
:1020A00080FF7DC032B381E090E002C0880F991FAD
:1020B0002A95E2F7832B82BB80E008959130F1F0FE
:1020C00030F0923091F1933009F446C06AC08AB37F
:1020D00090E0022E02C0959587950A94E2F780FF62
:1020E00062C03BB381E090E002C0880F991F2A953F
:1020F000E2F7809583238BBB80E0089587B390E05F
:10210000022E02C0959587950A94E2F780FF4DC094
:1021100038B381E090E002C0880F991F2A95E2F75A
:102120008095832388BB80E0089584B390E0022EDD
:1021300002C0959587950A94E2F780FF38C035B3C1
:1021400081E090E002C0880F991F2A95E2F7809500
:10215000832385BB80E0089581B390E0022E02C006
:10216000959587950A94E2F780FF23C032B381E00A
:1021700090E002C0880F991F2A95E2F7809583238B
:1021800082BB80E0089582E0089585E0089580E0B4
:10219000089583E0089583E0089583E0089583E03F
:1021A000089580E0089583E0089583E0089583E032
:1021B000089583E00895982F969596959695282FE3
:1021C0002770803208F065C06115710509F463C09D
:1021D0009130E9F030F0923081F1933009F443C04E
:1021E0005CC08AB390E0022E02C0959587950A9450
:1021F000E2F780FD54C089B390E002C095958795C1
:102200002A95E2F78170FB01808380E0089587B30F
:1022100090E0022E02C0959587950A94E2F780FD22
:1022200040C086B390E002C0959587952A95E2F765
:102230008170FB01808380E0089584B390E0022EDA
:1022400002C0959587950A94E2F780FD2CC083B370
:1022500090E002C0959587952A95E2F78170FB0181
:10226000808380E0089581B390E0022E02C09595AE
:1022700087950A94E2F780FD18C080B390E002C011
:10228000959587952A95E2F78170FB01808380E020
:10229000089582E0089584E0089580E0089583E041
:1022A000089583E0089583E0089583E008958130E0
:1022B00049F028F0823049F0833051F00CC06BBBFC
:1022C00080E0089568BB80E0089565BB80E00895D4
:0E22D00062BB80E0089581E00895F894FFCF8E
:1022DE00010E0E150E04040A11021C1A1C1A040219
:1022EE00010008070B070B04080E0E04140E050E52
:1022FE000A0006081808060000000C0203020C0073
:10230E00000E0E150E04040A110E0E040E15040A0C
:10231E000A100357656C636F6D65546F004D79201D
:10232E0047616D65205E5F5E2000506C796572318D
:10233E002053636F7265204D617800506C79657221
:10234E00322053636F7265204D61780047616D6571
:10235E00204D6F646520697300506C617965723130
:10236E002041747461636B2000506C617965723228
:10237E002041747461636B200001000000000000B6
:10238E00010000000000000000000000000000003E
:10239E000001020202020202000000000606060C04
:1023AE000C0C010203040506101114151617040572
:1023BE001C1D1E1F00010102030312130100000168
:1023CE0020506C617965722054776F2057696E00CA
:1023DE0020506C61796572204F6E652057696E00D2
:1023EE00596F752057696E20285E205E290047615F
:0823FE006D65204F7665720049
:00000001FF
